{
  "_format": "hh-sol-artifact-1",
  "contractName": "FinBankToken",
  "sourceName": "contracts/FinBankToken.sol",
  "abi": [
    {
      "inputs": [
        {
          "internalType": "address",
          "name": "initialOwner",
          "type": "address"
        }
      ],
      "stateMutability": "nonpayable",
      "type": "constructor"
    },
    {
      "inputs": [
        {
          "internalType": "address",
          "name": "spender",
          "type": "address"
        },
        {
          "internalType": "uint256",
          "name": "allowance",
          "type": "uint256"
        },
        {
          "internalType": "uint256",
          "name": "needed",
          "type": "uint256"
        }
      ],
      "name": "ERC20InsufficientAllowance",
      "type": "error"
    },
    {
      "inputs": [
        {
          "internalType": "address",
          "name": "sender",
          "type": "address"
        },
        {
          "internalType": "uint256",
          "name": "balance",
          "type": "uint256"
        },
        {
          "internalType": "uint256",
          "name": "needed",
          "type": "uint256"
        }
      ],
      "name": "ERC20InsufficientBalance",
      "type": "error"
    },
    {
      "inputs": [
        {
          "internalType": "address",
          "name": "approver",
          "type": "address"
        }
      ],
      "name": "ERC20InvalidApprover",
      "type": "error"
    },
    {
      "inputs": [
        {
          "internalType": "address",
          "name": "receiver",
          "type": "address"
        }
      ],
      "name": "ERC20InvalidReceiver",
      "type": "error"
    },
    {
      "inputs": [
        {
          "internalType": "address",
          "name": "sender",
          "type": "address"
        }
      ],
      "name": "ERC20InvalidSender",
      "type": "error"
    },
    {
      "inputs": [
        {
          "internalType": "address",
          "name": "spender",
          "type": "address"
        }
      ],
      "name": "ERC20InvalidSpender",
      "type": "error"
    },
    {
      "inputs": [
        {
          "internalType": "address",
          "name": "owner",
          "type": "address"
        }
      ],
      "name": "OwnableInvalidOwner",
      "type": "error"
    },
    {
      "inputs": [
        {
          "internalType": "address",
          "name": "account",
          "type": "address"
        }
      ],
      "name": "OwnableUnauthorizedAccount",
      "type": "error"
    },
    {
      "anonymous": false,
      "inputs": [
        {
          "indexed": true,
          "internalType": "address",
          "name": "owner",
          "type": "address"
        },
        {
          "indexed": true,
          "internalType": "address",
          "name": "spender",
          "type": "address"
        },
        {
          "indexed": false,
          "internalType": "uint256",
          "name": "value",
          "type": "uint256"
        }
      ],
      "name": "Approval",
      "type": "event"
    },
    {
      "anonymous": false,
      "inputs": [
        {
          "indexed": true,
          "internalType": "address",
          "name": "previousOwner",
          "type": "address"
        },
        {
          "indexed": true,
          "internalType": "address",
          "name": "newOwner",
          "type": "address"
        }
      ],
      "name": "OwnershipTransferred",
      "type": "event"
    },
    {
      "anonymous": false,
      "inputs": [
        {
          "indexed": true,
          "internalType": "address",
          "name": "by",
          "type": "address"
        }
      ],
      "name": "TokenPaused",
      "type": "event"
    },
    {
      "anonymous": false,
      "inputs": [
        {
          "indexed": true,
          "internalType": "address",
          "name": "by",
          "type": "address"
        }
      ],
      "name": "TokenUnpaused",
      "type": "event"
    },
    {
      "anonymous": false,
      "inputs": [
        {
          "indexed": true,
          "internalType": "address",
          "name": "from",
          "type": "address"
        },
        {
          "indexed": true,
          "internalType": "address",
          "name": "to",
          "type": "address"
        },
        {
          "indexed": false,
          "internalType": "uint256",
          "name": "value",
          "type": "uint256"
        }
      ],
      "name": "Transfer",
      "type": "event"
    },
    {
      "inputs": [],
      "name": "TOTAL_SUPPLY",
      "outputs": [
        {
          "internalType": "uint256",
          "name": "",
          "type": "uint256"
        }
      ],
      "stateMutability": "view",
      "type": "function"
    },
    {
      "inputs": [
        {
          "internalType": "address",
          "name": "owner",
          "type": "address"
        },
        {
          "internalType": "address",
          "name": "spender",
          "type": "address"
        }
      ],
      "name": "allowance",
      "outputs": [
        {
          "internalType": "uint256",
          "name": "",
          "type": "uint256"
        }
      ],
      "stateMutability": "view",
      "type": "function"
    },
    {
      "inputs": [
        {
          "internalType": "address",
          "name": "spender",
          "type": "address"
        },
        {
          "internalType": "uint256",
          "name": "value",
          "type": "uint256"
        }
      ],
      "name": "approve",
      "outputs": [
        {
          "internalType": "bool",
          "name": "",
          "type": "bool"
        }
      ],
      "stateMutability": "nonpayable",
      "type": "function"
    },
    {
      "inputs": [
        {
          "internalType": "address",
          "name": "account",
          "type": "address"
        }
      ],
      "name": "balanceOf",
      "outputs": [
        {
          "internalType": "uint256",
          "name": "",
          "type": "uint256"
        }
      ],
      "stateMutability": "view",
      "type": "function"
    },
    {
      "inputs": [],
      "name": "decimals",
      "outputs": [
        {
          "internalType": "uint8",
          "name": "",
          "type": "uint8"
        }
      ],
      "stateMutability": "view",
      "type": "function"
    },
    {
      "inputs": [],
      "name": "getTokenInfo",
      "outputs": [
        {
          "internalType": "string",
          "name": "tokenName",
          "type": "string"
        },
        {
          "internalType": "string",
          "name": "tokenSymbol",
          "type": "string"
        },
        {
          "internalType": "uint8",
          "name": "tokenDecimals",
          "type": "uint8"
        },
        {
          "internalType": "uint256",
          "name": "tokenTotalSupply",
          "type": "uint256"
        },
        {
          "internalType": "bool",
          "name": "isPaused",
          "type": "bool"
        }
      ],
      "stateMutability": "view",
      "type": "function"
    },
    {
      "inputs": [],
      "name": "name",
      "outputs": [
        {
          "internalType": "string",
          "name": "",
          "type": "string"
        }
      ],
      "stateMutability": "view",
      "type": "function"
    },
    {
      "inputs": [],
      "name": "owner",
      "outputs": [
        {
          "internalType": "address",
          "name": "",
          "type": "address"
        }
      ],
      "stateMutability": "view",
      "type": "function"
    },
    {
      "inputs": [],
      "name": "pause",
      "outputs": [],
      "stateMutability": "nonpayable",
      "type": "function"
    },
    {
      "inputs": [],
      "name": "paused",
      "outputs": [
        {
          "internalType": "bool",
          "name": "",
          "type": "bool"
        }
      ],
      "stateMutability": "view",
      "type": "function"
    },
    {
      "inputs": [],
      "name": "renounceOwnership",
      "outputs": [],
      "stateMutability": "nonpayable",
      "type": "function"
    },
    {
      "inputs": [],
      "name": "symbol",
      "outputs": [
        {
          "internalType": "string",
          "name": "",
          "type": "string"
        }
      ],
      "stateMutability": "view",
      "type": "function"
    },
    {
      "inputs": [],
      "name": "totalSupply",
      "outputs": [
        {
          "internalType": "uint256",
          "name": "",
          "type": "uint256"
        }
      ],
      "stateMutability": "view",
      "type": "function"
    },
    {
      "inputs": [
        {
          "internalType": "address",
          "name": "to",
          "type": "address"
        },
        {
          "internalType": "uint256",
          "name": "value",
          "type": "uint256"
        }
      ],
      "name": "transfer",
      "outputs": [
        {
          "internalType": "bool",
          "name": "",
          "type": "bool"
        }
      ],
      "stateMutability": "nonpayable",
      "type": "function"
    },
    {
      "inputs": [
        {
          "internalType": "address",
          "name": "from",
          "type": "address"
        },
        {
          "internalType": "address",
          "name": "to",
          "type": "address"
        },
        {
          "internalType": "uint256",
          "name": "value",
          "type": "uint256"
        }
      ],
      "name": "transferFrom",
      "outputs": [
        {
          "internalType": "bool",
          "name": "",
          "type": "bool"
        }
      ],
      "stateMutability": "nonpayable",
      "type": "function"
    },
    {
      "inputs": [
        {
          "internalType": "address",
          "name": "newOwner",
          "type": "address"
        }
      ],
      "name": "transferOwnership",
      "outputs": [],
      "stateMutability": "nonpayable",
      "type": "function"
    },
    {
      "inputs": [],
      "name": "unpause",
      "outputs": [],
      "stateMutability": "nonpayable",
      "type": "function"
    }
  ],
  "bytecode": "0x60806040523480156200001157600080fd5b5060405162000fa738038062000fa7833981016040819052620000349162000338565b806040518060400160405280600d81526020016c2334b72130b735902a37b5b2b760991b8152506040518060400160405280600381526020016211909560ea1b81525081600390816200008891906200040e565b5060046200009782826200040e565b5050506001600160a01b038116620000ca57604051631e4fbdf760e01b8152600060048201526024015b60405180910390fd5b620000d581620000f4565b50620000ed816a084595161401484a00000062000146565b5062000502565b600580546001600160a01b038381166001600160a01b0319831681179093556040519116919082907f8be0079c531659141344cd1fd0a4f28419497f9722a3daafe3b4186f6b6457e090600090a35050565b6001600160a01b038216620001725760405163ec442f0560e01b815260006004820152602401620000c1565b620001806000838362000184565b5050565b600554600160a01b900460ff1615620001f35760405162461bcd60e51b815260206004820152602a60248201527f46696e42616e6b546f6b656e3a20546f6b656e207472616e73666572732077686044820152691a5b19481c185d5cd95960b21b6064820152608401620000c1565b6200020083838362000205565b505050565b6001600160a01b03831662000234578060026000828254620002289190620004da565b90915550620002a89050565b6001600160a01b03831660009081526020819052604090205481811015620002895760405163391434e360e21b81526001600160a01b03851660048201526024810182905260448101839052606401620000c1565b6001600160a01b03841660009081526020819052604090209082900390555b6001600160a01b038216620002c657600280548290039055620002e5565b6001600160a01b03821660009081526020819052604090208054820190555b816001600160a01b0316836001600160a01b03167fddf252ad1be2c89b69c2b068fc378daa952ba7f163c4a11628f55a4df523b3ef836040516200032b91815260200190565b60405180910390a3505050565b6000602082840312156200034b57600080fd5b81516001600160a01b03811681146200036357600080fd5b9392505050565b634e487b7160e01b600052604160045260246000fd5b600181811c908216806200039557607f821691505b602082108103620003b657634e487b7160e01b600052602260045260246000fd5b50919050565b601f8211156200020057600081815260208120601f850160051c81016020861015620003e55750805b601f850160051c820191505b818110156200040657828155600101620003f1565b505050505050565b81516001600160401b038111156200042a576200042a6200036a565b62000442816200043b845462000380565b84620003bc565b602080601f8311600181146200047a5760008415620004615750858301515b600019600386901b1c1916600185901b17855562000406565b600085815260208120601f198616915b82811015620004ab578886015182559484019460019091019084016200048a565b5085821015620004ca5787850151600019600388901b60f8161c191681555b5050505050600190811b01905550565b80820180821115620004fc57634e487b7160e01b600052601160045260246000fd5b92915050565b610a9580620005126000396000f3fe608060405234801561001057600080fd5b506004361061010b5760003560e01c8063715018a6116100a257806395d89b411161007157806395d89b4114610209578063a9059cbb14610211578063abb1dc4414610224578063dd62ed3e14610291578063f2fde38b146102ca57600080fd5b8063715018a6146101cc5780638456cb59146101d45780638da5cb5b146101dc578063902d55a5146101f757600080fd5b8063313ce567116100de578063313ce567146101765780633f4ba83a146101855780635c975abb1461018f57806370a08231146101a357600080fd5b806306fdde0314610110578063095ea7b31461012e57806318160ddd1461015157806323b872dd14610163575b600080fd5b6101186102dd565b60405161012591906108d2565b60405180910390f35b61014161013c366004610908565b61036f565b6040519015158152602001610125565b6002545b604051908152602001610125565b610141610171366004610932565b610389565b60405160128152602001610125565b61018d6103ad565b005b60055461014190600160a01b900460ff1681565b6101556101b136600461096e565b6001600160a01b031660009081526020819052604090205490565b61018d6103ef565b61018d610403565b6005546040516001600160a01b039091168152602001610125565b6101556a084595161401484a00000081565b61011861044b565b61014161021f366004610908565b61045a565b600554604080518082018252600d81526c2334b72130b735902a37b5b2b760991b6020808301919091528251808401909352600383526211909560ea1b90830152916012906a084595161401484a00000090600160a01b900460ff16604051610125959493929190610989565b61015561029f3660046109d1565b6001600160a01b03918216600090815260016020908152604080832093909416825291909152205490565b61018d6102d836600461096e565b610468565b6060600380546102ec90610a04565b80601f016020809104026020016040519081016040528092919081815260200182805461031890610a04565b80156103655780601f1061033a57610100808354040283529160200191610365565b820191906000526020600020905b81548152906001019060200180831161034857829003601f168201915b5050505050905090565b60003361037d8185856104ab565b60019150505b92915050565b6000336103978582856104bd565b6103a285858561053c565b506001949350505050565b6103b561059b565b6005805460ff60a01b1916905560405133907ff38578ed892ce2ce655ca8ae03c73464ad74915a1331a9b4085e637534daeedf90600090a2565b6103f761059b565b61040160006105c8565b565b61040b61059b565b6005805460ff60a01b1916600160a01b17905560405133907ff017c0de579727a3cd3ee18077ee8b4c43bf21892985952d1d5a0d52f983502d90600090a2565b6060600480546102ec90610a04565b60003361037d81858561053c565b61047061059b565b6001600160a01b03811661049f57604051631e4fbdf760e01b8152600060048201526024015b60405180910390fd5b6104a8816105c8565b50565b6104b8838383600161061a565b505050565b6001600160a01b03838116600090815260016020908152604080832093861683529290522054600019811015610536578181101561052757604051637dc7a0d960e11b81526001600160a01b03841660048201526024810182905260448101839052606401610496565b6105368484848403600061061a565b50505050565b6001600160a01b03831661056657604051634b637e8f60e11b815260006004820152602401610496565b6001600160a01b0382166105905760405163ec442f0560e01b815260006004820152602401610496565b6104b88383836106ef565b6005546001600160a01b031633146104015760405163118cdaa760e01b8152336004820152602401610496565b600580546001600160a01b038381166001600160a01b0319831681179093556040519116919082907f8be0079c531659141344cd1fd0a4f28419497f9722a3daafe3b4186f6b6457e090600090a35050565b6001600160a01b0384166106445760405163e602df0560e01b815260006004820152602401610496565b6001600160a01b03831661066e57604051634a1406b160e11b815260006004820152602401610496565b6001600160a01b038085166000908152600160209081526040808320938716835292905220829055801561053657826001600160a01b0316846001600160a01b03167f8c5be1e5ebec7d5bd14f71427d1e84f3dd0314c0f7b2291e5b200ac8c7c3b925846040516106e191815260200190565b60405180910390a350505050565b600554600160a01b900460ff161561075c5760405162461bcd60e51b815260206004820152602a60248201527f46696e42616e6b546f6b656e3a20546f6b656e207472616e73666572732077686044820152691a5b19481c185d5cd95960b21b6064820152608401610496565b6104b88383836001600160a01b03831661078d5780600260008282546107829190610a3e565b909155506107ff9050565b6001600160a01b038316600090815260208190526040902054818110156107e05760405163391434e360e21b81526001600160a01b03851660048201526024810182905260448101839052606401610496565b6001600160a01b03841660009081526020819052604090209082900390555b6001600160a01b03821661081b5760028054829003905561083a565b6001600160a01b03821660009081526020819052604090208054820190555b816001600160a01b0316836001600160a01b03167fddf252ad1be2c89b69c2b068fc378daa952ba7f163c4a11628f55a4df523b3ef8360405161087f91815260200190565b60405180910390a3505050565b6000815180845260005b818110156108b257602081850181015186830182015201610896565b506000602082860101526020601f19601f83011685010191505092915050565b6020815260006108e5602083018461088c565b9392505050565b80356001600160a01b038116811461090357600080fd5b919050565b6000806040838503121561091b57600080fd5b610924836108ec565b946020939093013593505050565b60008060006060848603121561094757600080fd5b610950846108ec565b925061095e602085016108ec565b9150604084013590509250925092565b60006020828403121561098057600080fd5b6108e5826108ec565b60a08152600061099c60a083018861088c565b82810360208401526109ae818861088c565b60ff96909616604084015250506060810192909252151560809091015292915050565b600080604083850312156109e457600080fd5b6109ed836108ec565b91506109fb602084016108ec565b90509250929050565b600181811c90821680610a1857607f821691505b602082108103610a3857634e487b7160e01b600052602260045260246000fd5b50919050565b8082018082111561038357634e487b7160e01b600052601160045260246000fdfea26469706673582212207954da5d9cd96dd8eadd50c3b174f362b4eeda9a0b9486a4438250a7ad03cd9064736f6c63430008140033",
  "linkReferences": {},
  "deployedLinkReferences": {}
}